:100000000C947F1B0C94A91B0C94A91B0C94A91B8A
:100010000C94A91B0C94A91B0C94A91B0C94A91B50
:100020000C94A91B0C94A91B0C94A91B0C94A91B40
:100030000C94A91B0C947B390C94A91B0C94A91B40
:100040000C94A91B0C94DC840C94D9A40C94A91BCB
:100050000C9418390C94A91B0C94A91B0C94A91B83
:100060000C94A91B0C94A91B0C94A91B0C94A91B00
:100070000C94A91B0C94A91B0C94A91B0C94A91BF0
:100080000C941C410C94A91B0C94A91B4163446360
:1000900037633B635B635B6348634C6352635663E4
:1000A00048A44DA452A45CA48AA48AA466A46EA405
:1000B00076A480A452D92BD862D88ED962D862D8BF
:1000C00062D862D862D862D862D862D862D862D860
:1000D00062D862D862D862D862D862D862D862D850
:1000E00062D862D862D862D862D862D862D862D840
:1000F00088D962D862D862D862D862D862D862D809
:1001000062D861D962D862D862D862D862D862D81F
:1001100062D862D862D862D8A5D95FD84E414E491C
:100120004E495459494E46CDCCCC3D0AD7233C17B5
:10013000B7D13877CC2B329595E6241FB14F0A0002
:100140000020410000C84200401C4620BCBE4CCAF2
:100150001B0E5AAEC59D7400407A10F35A00A0726F
:100160004E18090010A5D4E80000E87648170000F2
:10017000E40B54020000CA9A3B000000E1F50500C0
:100180000080969800000040420F000000A0860109
:10019000000000102700000000E8030000000064D9
:1001A00000000000000A0000000000010000000044
:1001B000002C76D888DC674F0823DFC1DFAE59E119
:1001C000B1B796E5E3E453C63AE651997696E8E688
:1001D000C28426EB898C9B62ED407C6FFCEFBC9C5B
:1001E0009F40F2BAA56FA5F490055A2AF75C936B6D
:1001F0006CF9676DC11BFCE0E40D47FEF520E6B528
:1002000000D0ED902E0300943577050080841E0801
:100210000000204E0A000000C80C333333330F981F
:100220006E12831141EF8D2114893BE65516CFFEE6
:10023000E6DB18D1844B381BF77C1D901DA4BBE472
:1002400024203284725E228100C9F124ECA1E53DB4
:1002500027434F4D4D554E49434154494F4E00445D
:10026000525952554E004552524F525300494E4634
:100270004F004543484F00536C6565702E2E2E008D
:10028000473238205A20466F7262696464656E0A8C
:1002900000473238205A20466F7262696464656E86
:1002A00000205A3A200020593A2000426564205824
:1002B0003A20004D65736820706F696E7420636129
:1002C0006E6E6F74206265207265736F6C76656404
:1002D0000A00A4A5A6A700526573756D696E672014
:1002E0007072696E74005761697420666F72207550
:1002F0007365722E2E2E004E6F206D6F76652E0068
:10030000456E642066696C65206C6973740A0042EE
:100310006567696E2066696C65206C6973740A0094
:100320005446207072696E74696E672062797465D4
:1003300020004E6F74205446207072696E74696E8E
:10034000670A002569730025696D202569730025FA
:1003500069682025696D2025697300256964202559
:1003600069682025696D2025697300256979202534
:100370006964202569682025696D2025697300500E
:1003800072696E742074696D653A200050726F74E2
:1003900065637465642050696E0A004578747275EF
:1003A0006465722025730072026D0266025F02515D
:1003B000026F66660044454255473A004B494C4C33
:1003C00045442E20004D3131332053006F6B0045E2
:1003D0006E6465722D332050726F20B5202E00435D
:1003E00061703A454D455247454E43595F50415221
:1003F0005345523A300A004361703A434153455FD6
:100400004C494748545F4252494748544E4553531C
:100410003A300A004361703A544F47474C455F4CAD
:1004200049474854533A300A004361703A534F46A3
:1004300054574152455F504F5745523A300A004396
:1004400061703A4C4556454C494E475F44415441D2
:100450003A310A004361703A5A5F50524F42453A6E
:10046000310A004361703A4155544F4C4556454C52
:100470003A310A004361703A5052494E545F4A4F34
:10048000423A310A004361703A50524F4752455345
:10049000533A300A004361703A4155544F52455027
:1004A0004F52545F54454D503A310A004361703AFF
:1004B000454550524F4D3A310A004649524D574139
:1004C00052455F4E414D453A4D61726C696E204315
:1004D0007265616C69747920334420534F555243DF
:1004E000455F434F44455F55524C3A68747470738E
:1004F0003A2F2F6769746875622E636F6D2F4D6197
:10050000726C696E4669726D776172652F4D6172AA
:100510006C696E2050524F544F434F4C5F564552BA
:1005200053494F4E3A312E30204D414348494E45B4
:100530005F545950453A456E6465722D33205072B0
:100540006F2045585452554445525F434F554E54C1
:100550003A3120555549443A6365646532613266E3
:100560002D343161322D343734382D396231322D0A
:100570006335356336326633363766660A002F2FA9
:1005800020007A5F6D696E3A2000795F6D696E3A7E
:100590002000785F6D696E3A20005265706F72744A
:1005A000696E6720656E6473746F70207374617414
:1005B00075730A004D31343520533C696E6465789B
:1005C0003E206F7574206F662072616E676520280B
:1005D000302D31290A0053657474696E6720547296
:1005E0006176656C20416363656C65726174696FE7
:1005F0006E3A200053657474696E67205265747298
:1006000061637420416363656C65726174696F6EC8
:100610003A200053657474696E67205072696E7475
:1006200020416363656C65726174696F6E3A200086
:1006300053657474696E67205072696E7420616EC0
:10064000642054726176656C20416363656C6572E9
:100650006174696F6E3A2000205A002059005800DA
:1006600020204D61783A2000205A0020590058007F
:1006700020204D696E3A2000B32000B52000536F52
:10068000667420656E6473746F70733A20000001A5
:100690000F150E12FF16170E13FF03021A14FFFF99
:1006A000FF0C04FFFFFF01000EFFFF0C190DFF18E8
:1006B000FFFFFFFFFFFF206F7574206F66207261E0
:1006C0006E67650A00536572766F20003A2000203D
:1006D000536572766F200020643A0020693A00204A
:1006E000703A0043290A0061626C656420286D69D4
:1006F0006E2074656D702000436F6C6420657874A3
:100700007275646573206172652000B5200A004629
:1007100061646520486569676874200042656420EB
:100720004C6576656C696E6720004661696C65642E
:1007300020746F20656E61626C6520426564204C98
:100740006576656C696E670A004D65736820706F29
:10075000696E742063616E6E6F74206265207265CD
:10076000736F6C7665640A004D34323120696E63B4
:100770006F727265637420706172616D6574657209
:100780002075736167650A003A20007A5F6D696EB3
:100790003A20202D3230207A5F6D61783A20203265
:1007A00030005A204F666673657420004E6F2063D8
:1007B000617365206C696768740A004163746976C7
:1007C000652045787472756465723A2000556E6BC9
:1007D0006E6F776E20636F6D6D616E643A202200DC
:1007E0004B494C4C45442E200053544F50504544E7
:1007F0002E20005072696E7465722073746F707071
:1008000065642064756520746F206572726F727301
:100810002E2046697820746865206572726F722098
:10082000616E6420757365204D39393920746F20ED
:10083000726573746172742E202854656D706572D0
:1008400061747572652069732072657365742E20FA
:1008500053657420697420616674657220726573D3
:1008600074617274696E67290A004E6F204C696E5C
:1008700065204E756D6265722077697468206368C3
:1008800065636B73756D2C204C617374204C696EBD
:10089000653A20004E6F20436865636B73756D2069
:1008A00077697468206C696E65206E756D6265721B
:1008B0002C204C617374204C696E653A200063688B
:1008C00065636B73756D206D69736D617463682CFE
:1008D000204C617374204C696E653A20004C696E3F
:1008E00065204E756D626572206973206E6F74208D
:1008F0004C617374204C696E65204E756D62657233
:100900002B312C204C617374204C696E653A2000A9
:100910004D313130004D3331004D3834205820599D
:10092000205A204500544620726561642065727229
:100930006F720A00446F6E65207072696E74696E22
:10094000672066696C650A0020496E76616C69648F
:10095000206578747275646572200053544F50504E
:1009600045442E20005072696E7465722073746F56
:10097000707065642064756520746F206572726F95
:1009800072732E2046697820746865206572726FD4
:100990007220616E6420757365204D393939207479
:1009A0006F20726573746172742E202854656D70A7
:1009B0006572617475726520697320726573657400
:1009C0002E205365742069742061667465722072EC
:1009D000657374617274696E67290A0053544F50CD
:1009E0002063616C6C65642062656361757365206A
:1009F0006F6620424C546F756368206572726F7227
:100A0000202D207265737461727420776974682078
:100A10004D3939390A0024F4D43050C38E20C2A293
:100A20004017828B7011127A910D816CD90AA861DE
:100A3000E108C7586607615143061E4B5D05C14575
:100A4000A7041A411104093D980371393103403656
:100A5000DB0265339102D4305402802E1D02632CD8
:100A6000EE01752AC501B028A001102781018F254C
:100A700064012B244B01E0223401AC211F018D20A5
:100A80000D01801FFC00841EED00971DDF00B81CC7
:100A9000D200E61BC600201BBC00641AB200B219CB
:100AA000A8000A19A0006A189900D11791004017F0
:100AB0008B00B516840031167E00B31579003A1507
:100AC0007300C7146F0058146A00EE136600881391
:100AD000630025135E00C7125B006C1257001512ED
:100AE0005400C111510070114F0021114B00D6105C
:100AF00049008D1047004610440002104200C00F0C
:100B00004000800F3E00420F3C00060F3B00CB0E22
:100B10003800930E37005C0E3500270E3400F30DBD
:100B20003200C10D3100900D3000600D2E00320DED
:100B30002D00050D2C00D90C2B00AE0C2900850CC6
:100B400029005C0C2700350C27000E0C2600E80B52
:100B50002400C40B2400A00B23007D0B23005A0BA0
:100B60002100390B2100180B2000F80A1F00D90AB8
:100B70001E00BB0A1E009D0A1D00800A1D00630A9C
:100B80001C00470A1B002C0A1B00110A1A00F70957
:100B90001A00DD091900C4091900AB0919009209EE
:100BA00017007B091800630917004C091600360965
:100BB0001600200916000A091500F5081500E008BE
:100BC0001400CC081400B8081400A40814009008FD
:100BD00013007D0812006B08130058081200460825
:100BE0001200340811002308110012081100010836
:100BF0001100F0071000E0071000D0071000C00738
:100C00001000B0070F00A107100091070E00830726
:100C10000F0074070F0065070E0057070E00490705
:100C20000E003B070D002E070E0020070D001307D6
:100C30000D0006070D00F9060C00ED060D00E0069C
:100C40000C00D4060C00C8060C00BC060C00B00654
:100C50000C00A4060B0099060C008D060B00820602
:100C60000B0077060B006C060B0061060A005706A6
:100C70000B004C060A0042060A0038060A002E063F
:100C80000A0024060A001A060A00100609000706D0
:100C90000A00FD050900F4050900EB050900E2055D
:100CA0000900D9050900D0050900C7050900BE05DE
:100CB0000900B5050800AD050800A50509009C055B
:100CC0000800940508008C050800840508007C05D0
:100CD0000800740508006C050700650508005D053F
:100CE0000700560508004E050700470507004005A8
:100CF000080038050700310507002A05070023050D
:100D000007001C050600160507000F05070008056B
:100D1000060002050700FB040600F5040700EE04C8
:100D20000600E8040600E2040700DB040600D50420
:100D30000600CF040600C9040600C3040600BD0473
:100D40000600B7040600B1040500AC040600A604C2
:100D50000600A00405009B0406009504050090040D
:100D600006008A04050085040500800406007A0454
:100D7000050075040500700405006B040500660499
:100D80000500610405005C040500570405005204D9
:100D900005004D04050048040500430405003E0419
:100DA00004003A04050035040500300404002C0456
:100DB000050027040400230405001E0404001A048F
:100DC000040016040500110404000D0404000904C5
:100DD00005000404040000040400FC030400F803FC
:100DE0000400F4030400F0030400EC030400E8032F
:100DF0000400E4030400E0030400DC030400D8035F
:100E00000400D4030400D0030400CC030400C8038E
:100E10000300C503030024F404D9201BC40C5C0E9A
:100E20009804C4095F0265077101F405F900FB0429
:100E3000B30048048700C103690058035500030349
:100E40004500BE023A008402310053022A00290202
:100E5000250004022000E4011C00C8011900AF01B4
:100E60001700980114008401130071011000610142
:100E7000100051010E0043010D0036010B002B0143
:100E80000B0020010B00150109000C0109000301F2
:100E90000800FB000800F3000800EB000700E40076
:100EA0000600DE000600D8000600D2000600CC00D6
:100EB0000500C7000500C2000500BD000400B90020
:100EC0000400B5000400B1000400AD000400A90056
:100ED0000400A5000300A20003009F0004009B0083
:100EE00003009800030095000200930003009000A7
:100EF00003008D0002008B000300880002008600C2
:100F0000020084000300810002007F0002007D00D7
:100F100002007B00020079000200770001007600E9
:100F200002007400020072000100710002006F00F4
:100F300002006D0001006C0002006A0001006900FF
:100F40000200670001006600010065000100640006
:100F500002006200010061000100600001005F000A
:100F600002005D0001005C0001005B0001005A000E
:100F7000010059000100580001005700010056000F
:100F8000010055000100540001005300000053000F
:100F900001005200010051000100500001004F000B
:100FA00001004E0000004E0001004D0001004C0009
:100FB00001004B0000004B0001004A000100490005
:100FC0000100480000004800010047000100460001
:100FD00000004600010045000000450001004400FB
:100FE00001004300000043000100420000004200F5
:100FF00001004100000041000100400001003F00ED
:1010000000003F0001003E0000003E0001003D00E6
:1010100000003D0001003C0000003C0000003C00DE
:1010200001003B0000003B0001003A0000003A00D4
:1010300001003900000039000100380000003800CC
:1010400000003800010037000000370001003600C2
:1010500000003600000036000100350000003500B9
:1010600000003500010034000000340000003400AE
:1010700001003300000033000000330001003200A3
:101080000000320000003200010031000000310099
:10109000000031000100300000003000000030008E
:1010A00001002F0000002F0000002F0000002F0083
:1010B00001002E0000002E0000002E0001002D0077
:1010C00000002D0000002D0000002D0001002C006C
:1010D00000002C0000002C0000002C0001002B0060
:1010E00000002B0000002B0000002B0001002A0054
:1010F00000002A0000002A0000002A000100290048
:10110000000029000000290000002900000029003B
:10111000010028000000280000002800000028002E
:101120000000280001002700000027000000270021
:101130000000270000002700010026000000260014
:101140000000260000002600000026000100250007
:1011500000002500000025000000250000002500FB
:1011600000002500010024000000240000002400ED
:1011700000002400000024000100230000002300E0
:1011800000002300000023000000230000002300D3
:1011900000002300010022000000220000002200C5
:1011A00000002200000022000000220001002100B7
:1011B00000002100000021000000210000002100AB
:1011C000000021000000210001002000000020009C
:1011D000000020000000200000002000000020008F
:1011E000000020000000200001001F0000001F0080
:1011F00000001F0000001F0000001F0000001F0073
:1012000000001F0001001E0000001E0000001E0064
:1012100000001E0000004D383420582059205A206C
:10122000450057726974696E6720746F2066696C37
:10123000653A20006F70656E206661696C65642C8C
:101240002046696C653A20006F70656E20666169A2
:101250006C65642C2046696C653A200046696C65B3
:101260002073656C65637465640A002053697A6550
:101270003A200046696C65206F70656E65643A209F
:10128000006F70656E206661696C65642C2046692C
:101290006C653A20002066696C653A20004E6F77D5
:1012A00020002220706F73002220706172656E74BE
:1012B0003A2200535542524F5554494E452043411E
:1012C0004C4C207461726765743A22004B494C4C57
:1012D00045442E2000747279696E6720746F206314
:1012E000616C6C207375622D67636F64652066693D
:1012F0006C6573207769746820746F6F206D616E00
:1013000079206C6576656C732E204D4158206C6594
:1013100076656C2069733A0043616E6E6F74206F5E
:1013200070656E2073756264697220005446206394
:10133000617264206F6B0A006F70656E526F6F741C
:10134000206661696C65640A00766F6C756D652E48
:10135000696E6974206661696C65640A0045727221
:101360006F723A00544620696E6974206661696C38
:101370000A006175746F25692E67004D3234004D87
:1013800032332025730056652D6A65726B005665F1
:101390002D6A65726B0056652D6A65726B00567A10
:1013A0002D6A65726B00567A2D6A65726B005679EC
:1013B0002D6A65726B0056792D6A65726B005679DD
:1013C0002D6A65726B0056782D6A65726B005678CF
:1013D0002D6A65726B0056782D6A65726B00DFB2FC
:1013E000004573746570732F6D6D0045737465707F
:1013F000732F6D6D005A73746570732F6D6D005A85
:1014000073746570732F6D6D005973746570732FED
:101410006D6D005973746570732F6D6D0058737422
:101420006570732F6D6D005873746570732F6D6DDB
:1014300000DFB20053746570732F6D6D004A6572E2
:101440006B00416363656C65726174696F6E005611
:10145000656C6F63697479005A204F6666736574B2
:10146000005A204F666673657400D8D90046696CCF
:101470002E204469612E0046696C2E204469612E3D
:1014800000B52000B320004520696E206D6D33004B
:10149000D8D90043616E6E6F7420656E74657220DA
:1014A0007375626469723A2000022E2E0001526543
:1014B000667265736800AEAFB000473020463336C1
:1014C0003030205831313720593131370042696C82
:1014D000696E656172204C6576656C696E67204740
:1014E0007269643A0A0020706F736974696F6E20C4
:1014F0006F7574206F662072616E67652E0A003FFB
:1015000050726F62652000486F6D652025732573EA
:101510002573206669727374002066697273740A99
:10152000005A0059005800486F6D65200052756ED2
:101530006E696E6720696E204452592D52554E20B7
:101540006D6F64650A00473239204175746F20421F
:101550006564204C6576656C696E670A00284229CF
:1015600061636B00284629726F6E740028522969E6
:1015700067687400284C29656674003F2856296501
:1015800072626F7365206C6576656C206973206983
:101590006D706C61757369626C652028302D34291B
:1015A0002E0A00426164205A2076616C75650A003B
:1015B0004E6F2062696C696E656172206772696442
:1015C0000A0046696C652064656C657465643A0060
:1015D00044656C6574696F6E206661696C65642C26
:1015E0002046696C653A20006F70656E20666169FF
:1015F0006C65642C2046696C653A20000006090081
:10160000FE000000000001090008FE0000050808B7
:1016100006000040F0C88888987810050808060081
:1016200000C0F88888888888F8050505060001202C
:1016300030F830200508080600002070F82020202F
:1016400020E00509090600FF2070A8A8B888887066
:10165000200509090600FFE080C0B0A8283028282E
:101660000509090600FFF8A88888888888A8F80571
:101670000A0A0600FE205050505088A8A88870031F
:10168000030306000340A04025753A25303275005B
:10169000253032753A2530327500257564202530A5
:1016A00032753A25303275005A0059005800092029
:1016B00000000000000000000000000000003FFFEC
:1016C000F0F8020000600000000000000000380098
:1016D000704802000090000000000000000030FC94
:1016E00030438E668010000000000000000020FCE7
:1016F000107252933E60000000000000000020784D
:10170000104252F2001000000000000000002030E3
:10171000104A5282009000000000000000002C00DF
:10172000D0FA4E7700601FE00000104100002E311B
:10173000D000000000003FF00000082080002F7B58
:10174000D000000000003FF00000082080002F7B48
:10175000D0007C0000003FF00000104100002E315E
:10176000D000220000001FE00000208200002C00BA
:10177000D000220000001FE00000410400002030E3
:101780001000226C70003FF000004104000020783F
:1017900010003C3088003FF000002082000020FC58
:1017A0001000202088003FF000001041000030FCB5
:1017B0003000202088000FC000000000000038002A
:1017C00070002020880007800000FFFFC0003FFF5E
:1017D000F0007078700003000000FFFFC000000000
:1017E00000000000000000000000000000003FFFBB
:1017F000F0F8020000600000000000000000380067
:1018000070480200009000000000000000003387D4
:1018100030438E6680100000000000000000278723
:10182000907252933E6000000000000000002F877D
:10183000D04252F2001000000000000000002F878C
:10184000D04A5282009000000000000000002F03E8
:10185000D0FA4E7700601FE00000082080002030A2
:101860001000000000003FF000000410400020784D
:101870001000000000003FF000000410400020783D
:1018800010007C0000003FF00000082080002030A5
:101890001000220000001FE00000104100002F0394
:1018A000D000220000001FE00000208200002F87EF
:1018B000D000226C70003FF00000208200002F87D3
:1018C000D0003C3088003FF0000010410000278726
:1018D0009000202088003FF000000820800033871F
:1018E0003000202088000FC00000000000003800F9
:1018F00070002020880007800000FFFFC0003FFF2D
:10190000F0007078700003000000FFFFC0000000CE
:101910000000002100240027002A000000220025EA
:101920000028002B000000200023002600290002D0
:101930000202020202020204040404040404040376
:101940000303030303030301010101010101010179
:101950000204081020408001020408102040800189
:10196000020408102040808040201008040201007A
:101970000000010200090A0000000004030807003B
:101980000000000000000000000000000000002037
:1019900020506C616E6E6572427566666572427942
:1019A0007465733A20002046726565204D656D6F41
:1019B00072793A2000436F6D70696C65643A20411A
:1019C000756720203520323031390A00207C2041D3
:1019D0007574686F723A20456E6465722D332050BD
:1019E000726F20424C546F7563680A00323031398F
:1019F0002D30372D323600204C61737420557064C1
:101A0000617465643A2000312E312E36424C5F56A7
:101A1000332E310A004D61726C696E0020536F667F
:101A200074776172652052657365740A002057618E
:101A3000746368646F672052657365740A0020429E
:101A4000726F776E206F75742052657365740A002B
:101A50002045787465726E616C2052657365740AF6
:101A600000506F77657255700A0073746172740A62
:101A7000006572726F722077726974696E67207484
:101A80006F2066696C650A00456E6473746F7073CD
:101A900020256320256320256320256300205A3AF2
:101AA0000020593A0020583A00656E6473746F70D4
:101AB00073206869743A2000446F6E652073617604
:101AC000696E672066696C652E0A004D323900F434
:101AD000010000F401000064000000E803000000C1
:101AE00000FA430000FA430000A0400000C8410093
:101AF00000A0420000A0420000C8430000BA4220FB
:101B0000204D383531205A005A2D50726F626520B1
:101B10004F666673657420286D6D293A0A0020446B
:101B20000020490020204D333031205000504944DE
:101B30002073657474696E67733A0A00204600204A
:101B4000420020480020204D3134352053004D61A3
:101B500074657269616C206865617475702070616C
:101B600072616D65746572733A0A00205A00202014
:101B70004D3432302053004175746F20426564202B
:101B80004C6576656C696E673A0A00204500205AFC
:101B90000020590020580020420020540020204DF1
:101BA000323035205300416476616E6365643A20BB
:101BB000533C6D696E5F66656564726174653E2055
:101BC000543C6D696E5F74726176656C5F666565C5
:101BD00064726174653E20423C6D696E5F73656737
:101BE0006D656E745F74696D655F6D733E20583C02
:101BF0006D61785F78795F6A65726B3E205A3C6DE3
:101C000061785F7A5F6A65726B3E20453C6D6178F2
:101C10005F655F6A65726B3E0A00205400205200C7
:101C200020204D323034205000416363656C657272
:101C30006174696F6E2028756E6974732F73322911
:101C40003A20503C7072696E745F616363656C3EEC
:101C500020523C726574726163745F616363656C8A
:101C60003E20543C74726176656C5F616363656CA1
:101C70003E0A00204500205A0020590020204D3205
:101C800030312058004D6178696D756D2041636376
:101C9000656C65726174696F6E2028756E69747306
:101CA0002F7332293A0A00204500205A002059009B
:101CB00020204D3230332058004D6178696D756DAC
:101CC000206665656472617465732028756E697439
:101CD000732F73293A0A00204500205A002059002A
:101CE00020204D3932205800537465707320706580
:101CF0007220756E69743A0A0020204D323030200F
:101D000044300A0020204D32303020440020446905
:101D10007361626C65640A0046696C616D656E741E
:101D20002073657474696E67733A0020204D3134F6
:101D3000392043203B20556E69747320696E20431F
:101D4000656C736975730A002020473231202020AA
:101D5000203B20556E69747320696E206D6D0A00FA
:101D6000202F002042403A0020403A00486561742C
:101D7000696E6720646F6E652E0020573A004578C3
:101D80007472756465722025730042656420646F07
:101D90006E652E0020573A004265642048656174E4
:101DA000696E672E00205A3A0020593A0020436F8E
:101DB000756E7420583A0020453A00205A3A0020A7
:101DC000593A00583A0023646566696E65202044DC
:101DD000454641554C545F4B642000236465666959
:101DE0006E65202044454641554C545F4B692000A8
:101DF00023646566696E65202044454641554C5410
:101E00005F4B702000504944204175746F74756EAB
:101E1000652066696E697368656421205075742059
:101E2000746865206C617374204B702C204B6920A2
:101E3000616E64204B6420636F6E7374616E7473A3
:101E40002066726F6D2062656C6F7720696E746FAB
:101E500020436F6E66696775726174696F6E2E6874
:101E60000A00504944204175746F74756E65206690
:101E700061696C6564212074696D656F75740A0011
:101E8000504944204175746F74756E6520666169B0
:101E90006C6564212054656D70657261747572653E
:101EA00020746F6F20686967680A00204B643A20CD
:101EB00000204B693A2000204B703A20000A204352
:101EC0006C617373696320504944200A0020547583
:101ED0003A2000204B753A2000206D61783A2000AE
:101EE000206D696E3A200020643A2000206269610A
:101EF000733A200020636F6C642065787472757388
:101F0000696F6E2070726576656E7465640A006232
:101F100065640A002C2073797374656D2073746F87
:101F20007070656421204865617465725F49443A48
:101F3000200048656174696E67206661696C65643C
:101F40000048656174696E67206661696C6564004C
:101F500048656174696E67206661696C65640048F4
:101F6000656174696E67206661696C656400700103
:101F70002C0190012701B0012201C0011D01F001D7
:101F800018011002130130020E01600209019002D3
:101F90000401C002FF000003FA004003F5008003C3
:101FA000F000D003EB002004E6007004E100E00440
:101FB000DC004005D700C005D2004006CD00D006A9
:101FC000C8008007C3003008BE00F008B900C0098F
:101FD000B400B00AAF00B00BAA00D00CA500000EF0
:101FE000A000500F9B00C0109600501291000014EA
:101FF0008C00C0158700B0178200B0197D00D01B7F
:102000007800001E730040206E0090226900F024CA
:10201000640040275F0090295A00E02B5500102EE5
:10202000500020304B0010324600E0334100903524
:102030003C001037370070383200A0392D00B03A1C
:102040002800A03B2300603C1E00103D1900903D7D
:102050001400103E0F00703E0A00C03E0500003F15
:102060000000403FFBFF803FF6FFC03FF1FF5448B8
:1020700045524D414C2052554E41574159005468EC
:1020800065726D616C2052756E6177617900457281
:10209000723A204D494E54454D502042454400452A
:1020A00072723A204D494E54454D50004D494E54A0
:1020B000454D5020747269676765726564004572AA
:1020C000723A204D415854454D50204245440045F8
:1020D00072723A204D415854454D50004D4158546C
:1020E000454D502074726967676572656400C1B2BE
:1020F000205800C1B2205900C1B2205A00CCADBA5C
:1021000000C1B220302E316D6D00C1B220316D6D35
:1021100000C1B22031306D6D00C1B2CE00CCADBA7D
:1021200000C1B2205A00C1B2205900C1B2205800EB
:10213000CCADBA00C1B2205A00C1B2205900C1B220
:10214000205800A4A5004C6F6164206D656D6F720E
:102150007900496E697469616C697A6520454550FA
:10216000524F4D0053746F7265206D656D6F7279BB
:1021700000424C546F7563680046696C616D656E12
:102180007400DFB200C9D200AEAFB000C3C42041BA
:10219000425320BEBF00C3C420504C4120BEBF00EC
:1021A000D5D6D1D200D5D6D1D200D5D6D1D200C481
:1021B000C700C4C700C4C700D3D400D3D400D3D44D
:1021C00000D8D90053746F7265206D656D6F727998
:1021D00000C4C700C4C700C4C700D3D400D3D40010
:1021E000D3D400D5D6D1D200D5D6D1D200D5D6D130
:1021F000D200C9D200506C65617365207265736549
:1022000074005052494E5445522048414C54454464
:10221000005072696E7465722068616C7465642E1A
:10222000206B696C6C28292063616C6C6564210AE1
:102230000062696E004D31313720494E56414C499C
:102240004420444154412E004D31313720507269B1
:102250006E74696E672E2E2E004730205A2573004B
:10226000473238205830205930004730205A2573E3
:1022700000473932205A2573204525730062696E64
:102280000000000000000000000000000000004806
:102290004200004842000080400000000057617288
:1022A0006E696E673A20486F6D696E672042756D82
:1022B000702044697669736F72203C20310A0002F5
:1022C00002040000A0400000A04000000040000008
:1022D0006B4300006B4300007A43FFFFFF7C3C3EF2
:1022E0005E2B3D3F2F5B5D3B2C2A225C0050726FC2
:1022F00062696E67206661696C65640A0050726F7E
:1023000062696E67206661696C656400205A3A20D4
:102310000020593A200042656420583A20002E0AD5
:102320000046696C652862696E292064656C657475
:1023300065640044656C6574696F6E2862696E2916
:10234000206661696C656400000C0B00FE07019259
:10235000032120FFFF0AFF07FF00000006000A011B
:10236000070706020080808080800080030202064A
:102370000105A0A00507070600005050F850F850CE
:10238000500507070600002078A07028F0200507F8
:1023900007060000C0C8102040981805070706006F
:1023A000006090A040A89068020303060104C040AA
:1023B000800307070601002040808080402003073B
:1023C000070601008040202020408005050506000A
:1023D0000120A870A8200505050600012020F8208E
:1023E000200203030602FFC040800501010600032E
:1023F000F8020202060200C0C00505050600010839
:1024000010204080050707060000708898A8C8883B
:102410007003070706010040C040404040E0050748
:1024200007060000708808708080F805070706001E
:1024300000F81020100808F005070706000010300B
:102440005090F81010050707060000F880F0080803
:102450008870050707060000708080F08888700586
:102460000707060000F808102020202005070706AF
:102470000000708888708888700507070600007063
:10248000888878080870020505060200C0C000C0F0
:10249000C00206060602FFC0C000C0408004070755
:1024A00006000010204080402010050303060002B3
:1024B000F800F80407070600008040201020408044
:1024C0000507070600007088081020002005070790
:1024D00006000070880868A8A870050707060000B5
:1024E000708888F8888888050707060000F08888C3
:1024F000F08888F0050707060000708880808088D3
:1025000070050707060000F08888888888F00507AE
:1025100007060000F88080F08080F80507070600B5
:1025200000F88080F0808080050707060000708832
:1025300080B8888870050707060000888888F888B2
:1025400088880107070602008080808080808005DF
:1025500007070600003810101010906005070706E6
:1025600000008890A0C0A0908805070706000080A2
:102570008080808080F805070706000088D8A8883A
:102580008888880507070600008888C8A898888872
:102590000507070600007088888888887005070787
:1025A000060000F08888F08080800507070600009C
:1025B00070888888A89068050707060000F088885A
:1025C000F0A0908805070706000078808070080852
:1025D000F0050707060000F820202020202005072E
:1025E0000706000088888888888870050707060025
:1025F000008888888888502005070706000088889A
:10260000888888A850050707060000888850205051
:102610008888050707060000888888502020200544
:102620000707060000F80810204080F80307070697
:102630000000E08080808080E005050506000180C4
:1026400040201008030707060000E020202020207B
:10265000E005030306000420508805010106000080
:10266000F80202020602058040050505060000701A
:10267000087888780507070600008080B0C8888839
:10268000F0050505060000708080887005070706C4
:10269000000008086898888878050505060000701D
:1026A00088F880700507070600003048E040404089
:1026B000400506060600FF70888878087005070741
:1026C0000600008080B0C8888888010707060200DD
:1026D000800080808080800308080601FF200020A1
:1026E000202020A040040707060100808090A0C0A1
:1026F000A090030707060100C04040404040E005AD
:102700000505060000D0A8A8A8A805050506000034
:10271000B0C888888805050506000070888888701C
:102720000506060600FFF08888F08080050606068C
:1027300000FF788888780808050505060000B0C8FD
:1027400080808005050506000070807008F0040791
:10275000070600004040E040404030050505060007
:1027600000888888986805050506000088888850D4
:10277000200505050600008888A8A850050505065F
:10278000000088502050880506060600FF888888CB
:10279000780870050505060000F8102040F80307CA
:1027A0000706010020404080404020010707060244
:1027B00000808080808080800307070601008040C1
:1027C000402040408005020206000368900000009F
:1027D00006000A0000000C000A0000000C000A00BD
:1027E00000000C000A0000000C000A0000000C00B1
:1027F0000A0000000C000A0000000C000A000000A3
:102800000C000A0000000C000A0000000C000A0086
:1028100000000C000A0000000C000A0000000C0080
:102820000A0000000C000A0000000C000A00000072
:102830000C000A0000000C000A0000000C000A0056
:1028400000000C000A0000000C000A0000000C0050
:102850000A0000000C000A0000000C000A00000042
:102860000C000A0000000C000A0000000C000A0026
:1028700000000C000A0000000C000A0000000C0020
:102880000A0B0B160C00FFFFE00200020004000D13
:102890000014802440C4200400040004000B0B1624
:1028A0000C00FFF9008A00ABE0AC40AA40AA40AAA5
:1028B00040AA80210052808C600B0B160C00FF2474
:1028C0000024003F80440084000400FFE00A00115F
:1028D000002080C0600B0B160C00FF240024003F7A
:1028E000C044000400FFE00900090011202120403D
:1028F000E00B0B160C00FF20003DE0512091201151
:1029000020FF201120292025E0452080000B0B16F8
:102910000C00FF20807FC00840FFE0110020805F96
:102920004080203F8000007FC00B0B160C00FF2270
:102930004047E09480E4802FE04480F48007E03456
:1029400080C48007E00B0B160C00FF04808FE04969
:102950000019002FC0090009002FC0490089000F8D
:10296000E00B0B160C00FF10003F8051000E0031F1
:1029700080C0603F8024803F8024803F800B0B1606
:102980000C00FF2280FA4007E0FA808A808A80FAF1
:10299000802280B280AAA064E00B0B160C00FF22FC
:1029A0002047409280EFE0220047C0EC4007C0344F
:1029B00040C7C004400B0B160C00FF08000FC008F6
:1029C000000800FFE008000E000980084008000829
:1029D000000A0B160C00FFFF8000800080808080C2
:1029E00080FF8080008000804080407FC00B0B16FD
:1029F0000C00FF47C04100EFE0410045006960C99D
:102A0000204D6049204FE0C8200B0B160C00FF083A
:102A100000040004000A000A000A0011001100204E
:102A200080404080200B0B160C00FF22402200F754
:102A3000E0220023E03520E520254028802940724F
:102A4000200B0A140C00004440444044407FC00462
:102A5000000400842084208420FFE00B0B160C006F
:102A6000FF040000007FC00400040004007FC004D5
:102A70000004000400FFE00B0B160C00FFFFE01148
:102A80000001C0FE00488025000400FFE01500247E
:102A900080C4600B0B160C00FF11007FC044407F08
:102AA000C044407FC00400FFE004000400040009AB
:102AB0000B160C00FF1000FF8080808080FF80805C
:102AC000808080FF8080808080FF800B0B160C0050
:102AD000FF7100010003E0F92021204120512089ED
:102AE00020FA20022004C00B0B160C00FF7FC0113F
:102AF00000110011001100FFE01100110021002160
:102B00000041000B0B160C00FF21002200F440577F
:102B1000E0502057C094405440244057C094400B8C
:102B20000B160C00FF11000A007FC004000400FF18
:102B3000E004000A0011002080C0600A0B160C009F
:102B4000FF5FC0004084408440BF4084408C40947C
:102B500040A4408C4081C00B0B160C00FF240027C2
:102B6000C024002400FFE000001440248047000C33
:102B70000070000B0B160C00FF248004800FC0E4D3
:102B80008024803FE024802480288050008FE00B48
:102B90000B160C00FF08000800FF8088808880FF6B
:102BA0008088808880FFA0882007E00B0B160C002F
:102BB000FF27802480F480248074806C80A480248B
:102BC0008024A028A030600A0B160C00FFFFC080F4
:102BD0004080409E40924092409E4080408040FF16
:102BE000C080400B0B160C00FF7FC044005FC0503C
:102BF000405FC050405FC042004A805240A6200B58
:102C00000B160C00FF040007E004007FC0404040AA
:102C10004040407FC00000524089200B0B160C0042
:102C2000FF4780248004800480E86020002FC024B7
:102C3000402280310026C00B0B160C00FF7FC04ADB
:102C4000407FC00400FFE004003F802080248024F7
:102C500080FFE00B0B160C00FF22004FE048204FD6
:102C6000E0C8004FE04AA05AA06FE04AA048600BBD
:102C70000B160C00FFF3C024402A80F1002280656F
:102C8000E07220A540208023002C000B0B160C00C6
:102C9000FF0400FFE080200000FFE0040024002784
:102CA000C0240054008FE00B0B160C00FF73E010E3
:102CB00080510023E0FA202AA022A022A020802117
:102CC0004062200B0B160C00FF2200F7802280369A
:102CD00080E2A025A0246068200000524089200BDB
:102CE0000B160C00FF73C0420042007BE04A404AD2
:102CF000407A404A404240444088400B0B160C004A
:102D0000FF0800FFE008001FC030405FC090401F78
:102D1000C01040104010C00B0B160C00FF02007FCB
:102D2000E0420042005FC0420047004A80524062D9
:102D30002082000B0B160C00FFF3C096409180A67A
:102D400060A10097C091009500E7E0810081000B31
:102D50000B160C00FF0F8088804F8008808F80400A
:102D6000001FC03540554095403FE00B0B160C004E
:102D7000FF27E02080F880208020803880E08020BD
:102D8000802080208061800B0B160C00FF1FE091DB
:102D90000057C0144017C0944057C01100554099C7
:102DA0002023000B0B160C00FF208027E0F24021AF
:102DB0008022403420E24022402240224064400BE6
:102DC0000B160C00FF410041004FE0E9204920496B
:102DD000206FE0C92049204920CFE00B0B160C00E2
:102DE000FF2100F1004FE0A920F9202FE03920E970
:102DF0002029202FE028200B0B160C00FF8FE04924
:102E0000200920CBA049204FE048204BA04AA06BCE
:102E1000A050E00B0B160C00FF7FC00400444024C0
:102E20004024800400FFE004000400040004000BC0
:102E30000B160C00FF820042001FE0C2005FC05270
:102E4000405FC047004A805240BFE00B0B160C00A9
:102E5000FF04007FE048807FE048804F8040005FB3
:102E6000C04840478098600B0B160C00FF0100EF34
:102E7000E0A100A440AFE0A440AFE0A920E9200217
:102E8000800C600B0B160C00FF14C0F6A0BC60A7F2
:102E900080A880BFE0A920EFE009200FE009200B07
:102EA0000B160C00FF7F8040804280628054804877
:102EB00080488054A062A0406080200B0B160C005C
:102EC000FF04007FE040207FE040007DE054204C84
:102ED000A0546064A08D600B0B160C00FF82005F95
:102EE000E0040008409FE040200A800A804AA09247
:102EF000A022600B0B160C00FF41004FE0E82042BF
:102F00008044406820C7C0410041004100CFE00B31
:102F10000B160C00FF50207D209120FF2011207DFA
:102F2000205520552054205C2010E00B0B160C007F
:102F3000FF3F8020803F802080FFE048007BC04929
:102F40004079404880FB600B0B160C00FF04000426
:102F500000040024802440444044208420040004D1
:102F6000001C000B0B160C00FF040004000400FF03
:102F7000E004000A000A00110011002080C060096E
:102F80000A140A0000888049000800FF80008000C1
:102F9000807F8000800080FF800B0B160C00FF21DB
:102FA000001200FFE0000078804A807A804A807A30
:102FB00080488059800B0B160C00FF27C0000000D2
:102FC00000EFE02100220024402FE0202050008F5D
:102FD000E00B0B160C00FF20802700F90021C077C2
:102FE000002100F9E027007120A92020E00B0B163A
:102FF0000C00FF10401040FDE0104038C03540523A
:103000004094401040104010C00B0B160C00FF0005
:1030100040F8400BE0084088405240514021405069
:1030200040484089C00A0B160C00FF84008440848D
:1030300080F5008600840084009400A440C440838E
:10304000C00B0B160C00FF11207D001100FFE029C2
:1030500000FD4049407C8008A0FD600A200B0B1653
:103060000C00FF17C02440244067C0A1002FE021BE
:103070000023802540292021000B0B160C00FF089F
:1030800000FFE0100027C020806100AFE021002198
:1030900000210023000B0B160C00FF24002FE0B4CE
:1030A00000A480A4A0AAC02A8028802940324024FD
:1030B000200B0B160C00FF7FE080003FC020403F3C
:1030C000C010001FC010402880470038E00B0B16CE
:1030D0000C00FF7FE0400040004000400040004006
:1030E0000040004000400080000B0B160C00FFFF6A
:1030F000E004007FC044407FC044407FC0440024BF
:10310000001800E7E00B0B160C00FF11E0FD004576
:103110000029E0FD4011407D40114055409240346F
:10312000400B0B160C00FF21005FE04000CFC040B9
:10313000004FC040004FC048404FC048400B0B16E6
:103140000C00FF04007FC040407FC040407FC04073
:10315000407FC004405220BFA00B0B160C00FF7F25
:10316000C044407FC044407FC004001B00E0E01129
:1031700000110061000B0B160C00FFFFE0040008BB
:10318000007FE049204F2049204F20492049207FDF
:10319000E00B0B160C00FFFDE056407940388055DF
:1031A000409220FFE0040027C02400FFE00B0B1634
:1031B0000C00FFFB8052007BE01240FA4014403FBD
:1031C0008020803F8020803F800B0B160C00FF1F6B
:1031D000E0200027C06440A7C020002FE02820275F
:1031E000C0210023000B0B160C00FFF3E0822082AD
:1031F00020FA20822082208A20B220C2E00200022F
:10320000000B0B160C00FF248046A095C0E480271D
:10321000E04480F5C006A03480C48007E00B0B16A4
:103220000C00FF27C0410087E0E02022804580F2AB
:10323000800FE03080C14002200B0B160C00FF0213
:10324000000200220023C0220022002200220022CD
:10325000002200FFE0090B160C00FF08000800FF29
:1032600080888088808880FF80888088808880FF30
:10327000800B0B160C00FF210053A04100F7E0511A
:103280000053C0564053C05A4053C042400B0B1627
:103290000C00FF7FC0040004000400FFE00A000AE5
:1032A0000012002220422081E00B0B160C00FF11BF
:1032B0000021002FE06100A38023802540254029C4
:1032C00020210021000B0B160C00FFF7E09420F4E6
:1032D0002097E09480F48097E09480F4A0966004B6
:1032E000200B0B160C00FF7BE0948004007FC004D1
:1032F00000FFE00100FFE02100110007000B0B16AA
:103300000C00FF210047C091002FE06080AFE0205B
:103310008024802280208023800B0B160C00FF2746
:10332000C02440F7C02EE02AA03EE0E1002FE023B9
:1033300080254069200B0B160C00FF140027E02AA3
:10334000006200A3C02200220023E022002200220B
:1033500000526573656E643A20006F6B0020636FE6
:103360006C6420657874727573696F6E2070726515
:1033700076656E7465640A00627573793A207061CF
:103380007573656420666F7220696E7075740A00CB
:10339000627573793A2070617573656420666F7227
:1033A00020757365720A00627573793A2070726FC6
:1033B00063657373696E670A004B494C4C45442E34
:1033C00020004B494C4C2063617573656420627921
:1033D00020746F6F206D75636820696E6163746916
:1033E00076652074696D65202D2063757272656E37
:1033F0007420636F6D6D616E643A2000CCADD1D2E4
:1034000000CCADD1D200CCADD1D200D5D6D1D20036
:10341000D5D6D1D200D5D6D1D200C4C700C4C700FA
:10342000C4C700D3D400D3D400D3D400D1D200D1A8
:10343000D200D1D200AEAFB000C3C420504C412066
:10344000456E6400C3C420504C4120C4C700C3C4AF
:1034500020504C4100A4A500C3C420414253204544
:103460006E6400C3C42041425320C4C700C3C420BB
:1034700041425300A4A50047323800C3C420504C39
:103480004100C8C900C3C42041425300B5B6B7B813
:10349000B9BA004D383400B1B2CFD0004732380A43
:1034A00047323900BBBCBD00C1B2CE00AEAFB000E8
:1034B0005072696E742070617573656400473020C6
:1034C000463330303020583020593000004730200B
:1034D0005A2573004D31303920532569004D313460
:1034E0003020532569004D313036205332353500B8
:1034F0004D31303920532569004D31393020532565
:1035000069005072696E742061626F727465640044
:10351000F2F6CAF300F4F5CAF300A4A5F4F5CAF371
:10352000203F0053746F7720424C546F75636800DE
:103530004D32383020503020533930004465706CA3
:103540006F7920424C546F756368004D32383020DB
:1035500050302053313000AEAFB000F9A8004368BE
:10356000616E67652054462063617264004D32319C
:1035700000AFB000F2F6CAF300F4F5CAF3004D3222
:103580003100F1F2CAF300F2F6CAF300F4F5CAF31F
:1035900000496E69742E205446206361726400F104
:1035A000F2CAF300D8D900A4A500CFF000ECEDEEEC
:1035B000EF00656E7175657565696E67202200653F
:1035C00063686F3A002E0A006F70656E206661694D
:1035D0006C65642C2046696C653A200057726974EA
:1035E000696E6720746F2066696C653A20004572C9
:1035F000726F722077726974696E6720746F2045EC
:103600004550524F4D210A005654726176206D6923
:103610006E005654726176206D696E005654726168
:1036200076206D696E00566D696E00566D696E008C
:10363000566D696E00566D6178204500566D617853
:10364000204500566D6178204500566D6178205AFE
:1036500000566D6178205A00566D6178205A0056E8
:103660006D6178205900566D6178205900566D6162
:1036700078205900566D6178205800566D61782089
:103680005800566D6178205800DFB200416D6178B6
:10369000204500416D6178204500416D6178205AD8
:1036A00000416D6178205A00416D617820590041D8
:1036B0006D6178205900416D6178205800416D613D
:1036C00078205800412D74726176656C00412D742C
:1036D000726176656C00412D72657472616374006D
:1036E000412D7265747261637400416363656C009F
:1036F000416363656C00DFB20000ABEA25E611248C
:103700001FBECFEFD0E4DEBFCDBF13E0A0E0B1E03D
:10371000EAE1F4EF01E00BBF02C007900D92A23C7A
:10372000B107D9F729E1A2ECB3E001C01D92A83F8F
:10373000B207E1F71BE1CEE7DBE104C02197FE0110
:103740000E9470F9CD37D107C9F70E943CE10C9473
:1037500000FA0C9400002F923F924F925F926F926A
:103760007F928F929F92AF92BF92CF92DF92EF9211
:10377000FF920F931F93CF93DF93CDB7DEB7A3973D
:103780000FB6F894DEBF0FBECDBF0091890D20E6C5
:10379000029F80011124075F134F80919F0D80FFCE
:1037A0001AC0EFEBF5E384917F014FEFE41AF40ABE
:1037B000811102C0780104C00E942134F701F3CFC7
:1037C000D7018D917D01882319F00E942134F8CF13
:1037D0008AE00E94213481E090E090931816809353
:1037E00017161092E1031092E0038FE38093EB032E
:1037F0001092EA031092E90384E0ECEDF3E0DF01BC
:103800001D928A95E9F7F80180810F5F1F4F803282
:10381000D1F38E34C9F4818190ED980F9A3020F065
:103820008D3211F08B3281F4DF0112969D012F5FF2
:103830003F4F8C9180538A3010F4D901F7CFFD01AE
:10384000119680818032D9F3F0931F16E0931E16F3
:103850007F01BFEFEB1AFB0A10816AE270E0C7013B
:103860000E94C8F9009731F0FC01319780818032C5
:10387000E1F311821D3431F1143521F1173411F1C6
:10388000EFEBF5E384918F010F5F1F4F882321F049
:103890000E942134F801F6CF60911E1670911F1618
:1038A0008DEC97E00E94344282E20E9421348AE04B
:1038B0000E94213410921816109217160E945CBBB9
:1038C0000C94C12FC701FC01208101962032D9F34D
:1038D00020532A30A8F61093EB0380E090E06AE0D2
:1038E0003196DF0111972C91022E000C330B2053DF
:1038F0003109689FA001699F500D1124C901840FEF
:10390000951F208120532A3058F39093EA03809327
:10391000E903DF0131962C912032D9F31D34D1F423
:103920008E31910591F03CF48731910571F08C3125
:10393000910581F40AC08537910564F087379105B8
:1039400024F0803AE3E09E0729F4B093E103A093CA
:10395000E0037CC01092E1031092E00300911E1678
:10396000EE24E394F12CFD0131962C91222309F4ED
:103970006DC02132A1F41D3491F48032910579F4A7
:10398000F093E103E093E00363E270E0CF010E9473
:10399000C8F9009709F48BC3DC011C9257C021546D
:1039A0002A31A0F5AF01FA0130814F5F5F4F30320D
:1039B000D1F340ED430F4A3040F043ED430F423026
:1039C00020F03B3211F00C94F02EAF01622F70E02A
:1039D000DB0133E0B595A7953A95E1F7A452BC4FCA
:1039E0002770670102C0CC0CDD1C2A95E2F7960116
:1039F0003C91232B2C934115510511F0401B01C024
:103A000040E0DB01AE53BC4F4C930AC02091E00371
:103A10003091E103232B21F4B093E103A093E00361
:103A2000208121542A3110F4DF019DCFDF01AD0147
:103A30004F5F5F4F2C9120532A3010F4DA01F7CFFB
:103A4000FD01119620812032D9F3EECF8091EB0356
:103A50008D3409F42CC3843511F40C94AE2E8734C4
:103A600009F00ECF8091E9039091EA038D31910521
:103A700009F4ABC164F48430910509F48DC01CF4E1
:103A80000297D8F017CF4C9709F4CAC013CF8A35E4
:103A9000910509F405C244F48E31910509F498C1E9
:103AA0008A9709F472C206CF8B35910509F4FBC1E0
:103AB0008C35910509F4FBC1FDCE8091230188234B
:103AC00009F4F8CE02EAC02E01E0D02E8DE9E82EEE
:103AD00081E1F82E0EEC11E194EEA92E93E0B92EBF
:103AE00026EA822E21E0922ED6018D916D010E9450
:103AF0009A338823D9F00E946733F5012081211180
:103B000004C02091E803222331F0D8012D913D918A
:103B10004D915C9103C020E030E0A9010E942FF795
:103B2000F70160837183828393830AC0F8018081E7
:103B30009181A281B381F70180839183A283B383B2
:103B4000F4E0EF0EF11C0C5F1F4F2FEFA21AB20A28
:103B50008C149D0449F686E40E94C9338823C9F079
:103B60000E94673320E030E0A9010E94B2F81816E5
:103B700084F40E94673320E030E040E752E40E9482
:103B8000B2F760933D0170933E0180933F019093A3
:103B900040010E941DB88ECE80E50E94C933882363
:103BA00029F00E9423336B017C0103C0C12CD12C6E
:103BB000760183E50E94C933882361F00E94673350
:103BC00020E030E04AE754E40E94DBF00E942BF84A
:103BD0006B017C010E94108B80915B01811105C0FB
:103BE00060E087E792E00E949EAA0E94DC33809109
:103BF000E50B9091E60BA091E70BB091E80BC80E96
:103C0000D91EEA1EFB1E0E94CDA4DC01CB018C193B
:103C10009D09AE09BF09B7FF4DCE0E94B3B5F3CFE2
:103C20000E94108B80E00E9451550E94013481E077
:103C30008093DC0B88E50E949A33E82E89E50E9488
:103C40009A33082F8AE50E949A33F82EE11005C0B6
:103C5000011105C011E0182705C0011102C010E0D4
:103C600001C0182F0E94F731111104C0E11002C0E9
:103C70000023C1F180E090E0A0EAB0E48093A511B8
:103C80009093A611A093A711B093A8119C01AD0128
:103C90006091D6117091D7118091D8119091D9115E
:103CA0000E9475F087FF0BC019821A821B821C824A
:103CB000BE016F5F7F4F85EA91E10E946131111172
:103CC00005C0E11003C0011107C00CC080E090E006
:103CD0000E94ED921123B9F381E090E00E94ED92F1
:103CE000111103C0FF2009F45FC08091DD0B882310
:103CF00021F08091DE0B81111EC060E081E992E02D
:103D00000E949EAAEFEBF5E384918F010F5F1F4F96
:103D1000811103C0E0E8F2E004C00E942134F80100
:103D2000F3CF84918F010F5F1F4F8823E9F10E9429
:103D30002134F801F6CF0E94DC3280E090E0AAEE58
:103D4000B2E480939D1190939E11A0939F11B09324
:103D5000A0118093A1119093A211A093A311B093ED
:103D6000A4118091D6119091D711A091D811B09142
:103D7000D9118093A5119093A611A093A711B09388
:103D8000A81119821A821B821C829E012F5F3F4F4D
:103D900046ED51E161EA71E18DE991E10E946D30FA
:103DA00082E090E00E94ED920E94DC3280918B0DC7
:103DB0008093DC0B0E94E73383E0809313010E9421
:103DC0006D6B81E00E94515575CD0E94B95572CD41
:103DD000C090CE11D090CF11E090D011F090D111C1
:103DE00088E50E94C933811108C020E030E0A901B4
:103DF000C701B6010E942FF702C00E94673368A373
:103E000079A38AA39BA3C090D211D090D311E09044
:103E1000D411F090D51189E50E94C933811108C0F1
:103E200020E030E0A901C701B6010E942FF702C0CF
:103E30000E9467336B017C0169837A838B839C8347
:103E400088A099A0AAA0BBA02FE632E143E85AEBD4
:103E5000C501B4010E94B2F887FD2CCD22E430E008
:103E60004BE653E4C501B4010E9475F018160CF43A
:103E700021CD2FE632E143E85AEBC701B6010E949B
:103E8000B2F887FD17CD22E430E04BE653E4C701DA
:103E9000B6010E9475F018160CF40CCD0C94012F8D
:103EA0001092E80307CD81E08093E80303CD85E419
:103EB0000E94C933D82E811102C00E94108BB2EA31
:103EC000AB2EB1E0BB2E1EECE12E11E1F12E00E095
:103ED00010E0CC24C394D5018D915D010E94C933BB
:103EE000882371F00E946733F701608371838283B6
:103EF0009383133029F0123011F4C092DF0B01E0EC
:103F00001F5FF4E0EF0EF11C143029F7002319F0C5
:103F10000E94DC3237C0DD20A9F1C090DA11D090C8
:103F2000DB11E090DC11F090DD112091800B3091DD
:103F3000810B4091820B5091830BC701B6010E9407
:103F4000DBF00E94B7F86093CB167093CC16809389
:103F5000CD169093CE16C701B6010E9424F82FB754
:103F6000F8946093CB0D7093CC0D8093CD0D90930E
:103F7000CE0D2FBF1092BB161092BC161092BD161C
:103F80001092BE160E946D6B95CC80912301882300
:103F900009F490CC89E40E94C933082F882321F0CA
:103FA0000E943333162F01C010E08AE40E94C93307
:103FB000E82E882321F00E943333F62E01C0F12C25
:103FC000002311F0133030F4EE2089F0A2E0CA2E65
:103FD000CF1468F4E3EBF2E084918F010F5F1F4F81
:103FE000882309F467CC0E942134F801F5CF0E94A0
:103FF000F7310023E9F02091B8193091B919120373
:10400000B001139F700D11248091B4199091B519CE
:10401000680F791F072E000C880B990B0E947CF00B
:1040200060939D1170939E1180939F119093A011A6
:10403000EE20F1F02091BA193091BB194F2D4203B7
:10404000B001439F700D11248091B6199091B7195A
:10405000680F791F072E000C880B990B0E947CF0CB
:104060006093A1117093A2118093A3119093A41156
:1040700080E50E949A3381110E94573386E40E94A2
:10408000C933882309F485CD0E9467336B017C0115
:1040900020E030E0A9010E94B2F818160CF079CDAA
:1040A00020E030E040E752E4C701B60168CD8091DE
:1040B000E9039091EA038237910509F4E4C60CF014
:1040C000CBC08B34910509F435C40CF057C088314E
:1040D000910509F486C27CF58231910509F404C684
:1040E0009CF497FDE7CB823091050CF49BC141977E
:1040F00009F0E0CB60E087EF92E00E949EAA5E9814
:104100005E9815985E98D6CB8531910509F44FC21B
:1041100034F4449709F0CECBEFE0F3E009C28631E6
:10412000910509F449C2479709F0C4CBE091E00337
:10413000F091E1034AC28C31910509F4B5C25CF4F7
:104140008A31910509F459C20CF073C21092091713
:104150000E943EA0AFCB8F31910509F4F5C234F433
:104160004E9709F0A7CB0E94FC5AA4CB8032910550
:1041700009F4A3C28A9709F49DC39CCB88369105A4
:1041800009F4E4C30CF043C08235910509F4A3C5DA
:1041900034F58D34910509F4D5C30CF4CFC38135C2
:1041A000910509F087CB0E9461840E94108B0E94C8
:1041B00013B81092CB111092CA110E940FA0109246
:1041C0007B1510927A1568EE73E080E090E00E9413
:1041D000D3A960E08FEC93E00E949EAA6BCB84355C
:1041E000910509F481C50CF47AC58535910509F46A
:1041F000AEC58C35910509F05DCB62EAC62E61E053
:10420000D62E74E7E72E7BE0F72E10E0BBC58D3687
:10421000910509F42BC58CF48A36910509F42AC559
:104220000CF4DEC48B36910509F443C58C36910538
:1042300009F040CB10925A013DCB8F36910509F41D
:10424000D3C30CF4BEC38037910509F476C481371B
:10425000910509F47AC42ECB823E910511F40C9499
:10426000202B0CF064C08B39910509F4D6C40CF5F1
:104270008737910509F4D3C06CF48537910509F4AB
:1042800097C60CF09EC68337910509F013CBEAEB75
:10429000F4E002C68937910509F432C70CF429C746
:1042A0008C38910509F47EC48139910509F42EC733
:1042B00001CB8C3C910511F40C94902914F5883CA9
:1042C000910511F40C9401293CF48E3B910509F001
:1042D000F1CA0E948A70EECA893C910511F40C94CF
:1042E00055298B3C910509F0E5CAA2EAEA2EA1E026
:1042F000FA2E04EC19E1B4EDCB2EB9E1DB2E0C94CF
:104300008029833D910509F486C034F48D3C9105E4
:1043100011F40C94FC29CECA8C3D910511F40C9437
:10432000F52A8D3D910511F40C94042BC3CA8A39EA
:10433000A1E09A0709F405C49CF58F32E1E09E07DD
:1043400011F40C94F42C7CF48D3221E0920711F4DA
:104350000C94FE2B14F00C949D2C8831914011F498
:104360000C944F2BA7CA8039B1E09B0711F40C9431
:10437000F82C44F48336914009F09CCAEDE5F3E152
:104380000C94862E813921E0920711F40C94FC2CB8
:104390008239914009F08ECA80E00E9469318ACA50
:1043A000863FA1E09A0711F40C943D2ED4F4853A8F
:1043B000E1E09E0711F40C94A32D34F4843A91406B
:1043C00011F40C94012D76CA843F41E0940711F456
:1043D0000C94392E853F914009F06CCA0E947FC928
:1043E00069CA8335B3E09B0791F034F4873F91406D
:1043F00011F40C94412E5ECA803A23E0920709F42E
:1044000097C1873E934011F40C949A2E53CAEFEB58
:10441000F5E30C94532EEFEBF5E30C94692AEAE9EB
:10442000F5E009C6A090E003B090E10380E50E94AA
:10443000C933882359F00E9423336B017C0111E0BA
:10444000672B682B692B31F410E004C010E0C12CFD
:10445000D12C760183E50E94C9338823F1F00E94B4
:10446000673320E030E04AE754E40E94DBF00E942A
:104470002BF86B017C01111112C0672B682B692B83
:1044800071F4A114B10459F0D5018C91882339F04D
:1044900061E0C5010E94BCAA07C0112391F360E04E
:1044A00086EE92E00E949EAA83E090E09093181618
:1044B0008093171681E0809379150E94108B0E94DB
:1044C000DC33C114D104E104F104E1F08091E50B87
:1044D0009091E60BA091E70BB091E80BC80ED91EA6
:1044E000EA1EFB1E0E94CDA4DC01CB018C199D09A4
:1044F000AE09BF09B7FF19C08091791581110C94DD
:10450000582F13C080917915882319F00E94B3B5F4
:10451000F9CF8091091760E0882319F087ED92E0C8
:1045200002C082ED92E00E949EAA10927915C2C943
:1045300084918F010F5F1F4F882321F00E94213447
:10454000F801F6CF1092AE191092AD198AE397E1F7
:104550000E945A998BE1EAE3F7E1DE01159601909A
:104560000D928A95E1F780913817909139179C83C5
:104570008B838AEA91E09A83898340E050E0BE0110
:104580006F5F7F4F81E693E00E941147CE01019655
:104590000E941C94E0E0F3E084918F010F5F1F4FB5
:1045A000882309F487C90E942134F801F5CF0E94BD
:1045B00076450E9424947EC91092091710920A171A
:1045C00079C9803209F41082319680818111F9CF46
:1045D00040E061E08091E0039091E1030E941C497A
:1045E00069C90E940FA080910A17882319F081E001
:1045F000809309170E94CF9F5DC980910A17882375
:1046000009F458C983E50E94C933882309F452C9C3
:104610000E943333AB01BC014093A4195093A519F8
:104620006093A6197093A71984ED98E10E9461D553
:1046300041C980910A17811103C0E2E3F3E029C068
:10464000E0E2F3E084918F010F5F1F4F882321F098
:104650000E942134F801F6CF6091A4197091A51938
:104660008091A6199091A7194AE00E949D348FE28B
:104670000E9421346091A0197091A1198091A21912
:104680009091A3194AE00E949D348AE00E9421344F
:1046900011C984918F010F5F1F4F882309F40AC944
:1046A0000E942134F801F5CF40E060E08091E00302
:1046B0009091E1030E941C49FDC880910917811166
:1046C0000E94108BE090E003F090E10380E50E94EF
:1046D0009A33182F882319F00E945733182F80918E
:1046E0000A17882309F4E6C8412F61E0C7010E9438
:1046F0001C4983E50E94C933882381F00E9433332B
:10470000AB01BC014093A4195093A5196093A6195D
:104710007093A71984ED98E10E9461D580910A17E2
:10472000882319F081E0809309171111C3C862CF63
:104730008091E0039091E10321E02093081740E08D
:1047400060E00E941C49B6C80E94C0467B018C01F3
:1047500020E831E541E050E00E94CBF6C9016DE66A
:1047600071E00E9448F94B015C01C801B70120E1EA
:104770003EE040E050E00E94CBF6CA01B90128E1DA
:1047800030E040E050E00E94CBF6762E672EC62E39
:10479000D72EFCE32F2E312C412C512CC801B70110
:1047A000A20191010E94CBF6F62EE72ECA01B901B3
:1047B000A20191010E94CBF6CB018E010F5F1F4F2A
:1047C0008114910499F0EF92FF927F936F936F920F
:1047D0007F92BF92AF929F928F928BE693E09F93CE
:1047E0008F931F930F930E940DF013C0A114B10477
:1047F000B1F0EF92FF927F936F936F927F92BF928F
:10480000AF928BE593E09F938F931F930F930E943A
:104810000DF00FB6F894DEBF0FBECDBF30C0CD286F
:1048200079F0EF92FF927F936F936F927F928FE474
:1048300093E09F938F931F930F930E940DF0E9CF06
:10484000892B69F0EF92FF927F936F9387E493E057
:104850009F938F931F930F930E940DF0DACFEF92E7
:10486000FF9283E493E09F938F931F930F930E9493
:104870000DF00F900F900F900F900F900F9060E041
:10488000C8010E94BCAAEFEBF5E384917F012FEFF2
:10489000E21AF20A882321F00E942134F701F5CFB1
:1048A000B8018FE793E00E9434428AE00E942134ED
:1048B0000C945A1C83E50E94C933882311F40C948C
:1048C0005A1C0E944333E82E80E50E94C933882396
:1048D00011F40C945A1C0E943333162FC62ED72E77
:1048E000D7FE02C00C945A1CEEE8F6E0849118132F
:1048F00003C0EDE5F3E10AC0319646E0E63BF4077C
:10490000A9F70C945C2F0E942134F80184918F0147
:104910000F5F1F4F8111F7CFECE8F3E084918F0117
:104920000F5F1F4F882311F40C945A1C0E942134EE
:10493000F801F4CF0E94CF9F0C945A1C0E943EA015
:104940000C945A1C0E946CC60C945A1C88E690E089
:104950000E940A3581110C945A1C80919F0D83FF8F
:1049600002C00C945A1C83E50E94C933882329F1A4
:104970000E9467330E9424F8CB010E9443AA0E9440
:1049800067332091930B3091940B4091950B50918C
:10499000960B0E94B2F8181684F48FE392E09F936E
:1049A0008F938BE993E09F938F931F920E94F6461B
:1049B0000F900F900F900F900F900E94DF420C9479
:1049C0005A1C8EE40E94C933882311F40C945A1C9B
:1049D0000E94333360930B1670930C1680930D1660
:1049E00090930E160C945A1C83E50E949A338823E8
:1049F00059F083E50E94C933882319F00E9443339C
:104A000001C080E080939F0DEFEBF5E384918F016F
:104A10000F5F1F4F811103C0E5EBF3E004C00E945C
:104A20002134F801F3CF84918F010F5F1F4F88234A
:104A300021F00E942134F801F6CF80919F0D811161
:104A400003C0E1EBF3E034C0E7EACE2EE3E0DE2E74
:104A5000E12CF12C20E080919F0D90E00E2C02C003
:104A6000959587950A94E2F780FF17C0BB24B3940D
:104A7000B20E222319F08CE20E942134F6018591B6
:104A80009491FC0184918F010F5F1F4F882321F0C7
:104A90000E942134F801F6CF2B2D8FEFE81AF80A87
:104AA00092E0C90ED11CA5E0EA16F104A1F640C0BF
:104AB00084918F010F5F1F4F8823D1F10E94213411
:104AC000F801F6CF8AE50E949A33882311F40C94FA
:104AD000752E0E9467336B017C0120E030E040EAD4
:104AE00051EC0E94B2F887FF02C00C94672E20E0C0
:104AF00030E040EA51E4C701B6010E9475F0181693
:104B000014F40C94672EC0920212D0920312E09219
:104B10000412F09205120E9458A060910212709146
:104B20000312809104129091051242E00E94A33872
:104B30008AE00E9421340C945A1C8CEB93E00E9472
:104B400025970E943D6B0C945A1C83E50E94C93343
:104B5000811103C0EFEBF5E30DC00E944333809356
:104B600051018D3310F40C945A1C8CE38093510145
:104B70000C945A1C84918F010F5F1F4F882321F0E2
:104B80000E942134F801F6CF4091510150E060E0DD
:104B900070E085EC93E00E94E1418AE00E942134BC
:104BA0000C945A1C80919F0D83FF02C00C945A1CD8
:104BB00083E50E94C933882311F40C945A1C0E9487
:104BC00067330E9424F86E37710514F06DE770E0CA
:104BD0007093C9116093C8110E9415840C945A1CDB
:104BE00089E690E00E940A35811111C0ECECF3E0F7
:104BF00084918F010F5F1F4F882321F00E94213481
:104C0000F801F6CF0E942C6C8AE00E9421341092A9
:104C10001816109217160C94C12F83E50E94C93301
:104C2000882311F40C945A1C0E94433380931D1660
:104C30008D3318F08CE380931D160E94CDA46B0178
:104C40007C0120911D1630E0A8EEB3E00E941FF712
:104C5000C60ED71EE81EF91EC0921916D0921A165B
:104C6000E0921B16F0921C160C945A1C0E941F72A4
:104C70000C945A1C83E50E94C933882339F00E94A2
:104C800033338B016F3F710519F010F00FEF10E017
:104C900080E50E94C933811106C01093CB110093A7
:104CA000CA110C945A1C0E94433381110C945A1C53
:104CB000F4CF80E50E94C933811106C01092CB1158
:104CC0001092CA110C945A1C0E943333672B11F0B6
:104CD0000C945A1CF3CF1092E7030C945A1C81E0F9
:104CE0008093E7030C945A1C83E50E94C933882300
:104CF000A1F00E94673320E030E04AE754E40E94CC
:104D0000DBF00E942BF86093520170935301809363
:104D10005401909355010C945A1C88E50E949A33D3
:104D200081110C94752F89E50E949A3381110C949E
:104D3000752F8AE50E949A3381110C94752F85E4B2
:104D40000E949A3381110C94752F0C94932F83E554
:104D50000E949A33882311F40C945A1C0E946733E2
:104D600020E030E04AE754E40E94DBF00E942BF898
:104D70006093201670932116809322169093231629
:104D80000C945A1CF60181916F010E949A3388237A
:104D900009F46EC0133009F063C00E9467334B0101
:104DA0005C0120E030E040EA51E40E9475F087FFAA
:104DB0004EC0A50194016091800B7091810B809190
:104DC000820B9091830B0E94B2F72B013C019B0157
:104DD000AC016091700B7091710B8091720B90918E
:104DE000730B0E94DBF06093700B7093710B8093D8
:104DF000720B9093730BA30192016091D019709183
:104E0000D1198091D2199091D3190E94DBF060934F
:104E1000D0197093D1198093D2199093D3196091BE
:104E2000AC0D7091AD0D8091AE0D9091AF0D0E94C3
:104E30007AF0A30192010E94DBF00E942BF86093AC
:104E4000AC0D7093AD0D8093AE0D9093AF0D80922D
:104E5000800B9092810BA092820BB092830B08C0C2
:104E60000E946733D7016D937D938D939C93139725
:104E70001F5FB4E0EB0EF11C143009F083CF0E94E9
:104E800072820C945A1C0E94108B0E946D6B0C94C1
:104E90005A1C0E942134F80184918F010F5F1F4F2B
:104EA0008111F7CFECEAF4E003C00E942134F8014D
:104EB00084918F010F5F1F4F8111F7CFE5E9F4E077
:104EC00003C00E942134F80184918F010F5F1F4FAE
:104ED0008111F7CFE5E8F4E003C00E942134F80126
:104EE00084918F010F5F1F4F8111F7CFE4E7F4E04A
:104EF00003C00E942134F80184918F010F5F1F4F7E
:104F00008111F7CFE3E6F4E003C00E942134F801F9
:104F100084918F010F5F1F4F8111F7CFE4E5F4E01B
:104F200003C00E942134F80184918F010F5F1F4F4D
:104F30008111F7CFEFE3F4E003C00E942134F801C0
:104F400084918F010F5F1F4F8111F7CFE9E2F4E0E9
:104F500003C00E942134F80184918F010F5F1F4F1D
:104F60008111F7CFE4E1F4E003C00E942134F8019D
:104F700084918F010F5F1F4F8111F7CFE7EFF3E0AF
:104F800003C00E942134F80184918F010F5F1F4FED
:104F90008111F7CFEFEDF3E084918F010F5F1F4F89
:104FA000882311F40C945A1C0E942134F801F4CF88
:104FB00060E08091E0039091E1030E94BCAA0C9410
:104FC0005A1C85E40E949A33882381F00E9457334B
:104FD000882361F0EFEBF5E384918F010F5F1F4FA2
:104FE000882321F00E942134F801F6CF81E40E9449
:104FF0009A33882381F00E945733882361F0EEE7CB
:10500000F5E084918F010F5F1F4F882321F00E94EC
:105010002134F801F6CF0091E0031091E103F8018B
:1050200081918F01882309F483CD0E942134F7CF29
:105030000E942134F80184918F010F5F1F4F81116D
:10504000F7CFE2E9F5E084918F010F5F1F4F8823CE
:1050500021F00E942134F801F6CF329B03C00BE20D
:1050600012E002C006E212E0D8018D918D01882382
:1050700019F00E942134F8CF8AE00E942134EAE836
:10508000F5E084918F010F5F1F4F882321F00E946C
:105090002134F801F6CF339B03C00BE212E002C0CB
:1050A00006E212E0F80181918F01882319F00E9435
:1050B0002134F8CF8AE00E942134E2E8F5E08491BF
:1050C0008F010F5F1F4F882321F00E942134F801C8
:1050D000F6CF349B03C00BE212E002C006E212E0FE
:1050E000D8018D918D01882309F422CD0E942134AD
:1050F000F7CF81E08093DC0B80938B0D0C945A1CCE
:105100001092DC0B10928B0D0C945A1C83E50E94BC
:10511000C933882319F00E94333302C060E070E085
:105120008B01112702301105DCF0EDE5F3E18491EC
:105130008F010F5F1F4F811103C0E4EBF5E004C046
:105140000E942134F801F3CF84918F010F5F1F4F2C
:10515000882311F40C945A1C0E942134F801F4CFD6
:1051600088E40E94C9338823A9F00E9433336A3A45
:1051700071053CF06530B1E07B072CF064E071E034
:1051800002C06AEA70E0F801EE0FFF1FE25DF14F26
:105190007183608386E40E94C9338823A9F00E944A
:1051A0003333F801EE0FFF1FEE5CF14F7183608324
:1051B0006F3F710519F014F06FEF70E077FF02C0D8
:1051C00060E070E07183608382E40E94C9338823C9
:1051D00011F40C945A1C0E9433336530710534F07D
:1051E0006F3671052CF06EE670E002C065E070E08D
:1051F000000F111FF801E65DF14F718360830C947D
:105200005A1C88EC90E00E940A3581110C945A1CBB
:1052100084E40E949A33882309F443C00E946733D0
:105220006B017C0111E020E030E0A9010E9475F0E3
:10523000811101C010E01093880B20E030E0A9013B
:10524000C701B6010E9475F0882359F10091E2036D
:1052500010E00E946733000F111F000F111FF801AB
:10526000EC57F44F608371838283938320E030E0B6
:10527000A9016091840B7091850B8091860B9091B0
:10528000870B0E9475F081110CC080E090E0A0EEC9
:10529000BFE38093840B9093850BA093860BB09310
:1052A000870B0E94FBB20C945A1C12EAE12E11E00B
:1052B000F12E04ED19E184EEC82E89E1D82EF70114
:1052C00081917F010E949A33882351F00E946733B5
:1052D0000E942BF8D8016D937D938D939C93139727
:1052E0000C5F1F4FC016D10651F70E94D6730C9465
:1052F0005A1C0C5F1F4FC016D10611F40C945A1C97
:10530000F70181917F010E949A33882391F30E94D3
:105310006733D8016D937D938D939C931397E9CF59
:1053200083E50E949A338823D9F00E946733AB014A
:10533000BC014093EC195093ED196093EE197093F2
:10534000EF194093E4195093E5196093E6197093AF
:10535000E71980E396E00E94FE418AE00E94213432
:1053600080E50E949A33882399F00E946733AB014D
:10537000BC014093EC195093ED196093EE197093B2
:10538000EF1983E196E00E94FE418AE00E942134F9
:1053900082E50E949A33882399F00E946733AB011B
:1053A000BC014093E8195093E9196093EA1970938E
:1053B000EB1984EF95E00E94FE418AE00E942134BF
:1053C00084E50E949A33882311F40C945A1C0E949D
:1053D0006733AB01BC014093E4195093E519609326
:1053E000E6197093E71986ED95E00E94FE418AE088
:1053F0000E9421340C945A1C83E50E949A3388231E
:1054000051F00E9467336093C0197093C119809363
:10541000C2199093C31984E50E949A33882351F0EE
:105420000E9467336093BC197093BD198093BE19B5
:105430009093BF1982E40E949A33882351F00E940E
:1054400023336093970D7093980D8093990D9093EB
:105450009A0D88E50E949A33882351F00E946733A1
:105460006093640B7093650B8093660B9093670B4E
:1054700089E50E949A33882351F00E946733609334
:10548000680B7093690B80936A0B90936B0B8AE5A2
:105490000E949A33882351F00E94673360936C0B0B
:1054A00070936D0B80936E0B90936F0B85E40E944D
:1054B0009A33882311F40C945A1C0E94673360932A
:1054C000700B7093710B8093720B9093730B0C9411
:1054D0005A1C84918F010F5F1F4F882321F00E9477
:1054E0002134F801F6CF83E50E949A33882321F016
:1054F0000E94573380933C01EEE7F6E084918F01E0
:105500000F5F1F4F882321F00E942134F801F6CF4E
:1055100080913C01882319F0E8E7F6E002C0EBE750
:10552000F6E084918F010F5F1F4F811103C0E0E708
:10553000F6E004C00E942134F801F3CF84918F017A
:105540000F5F1F4F882321F00E942134F801F6CF0E
:105550004091812250918222609183227091842215
:105560008EE696E00E94FE4140918522509186226F
:1055700060918722709188228BE696E00E94FE411E
:105580004091892250918A2260918B2270918C22C5
:1055900088E696E00E94FE41E0E6F6E084918F0105
:1055A0000F5F1F4F882321F00E942134F801F6CFAE
:1055B00040E050E06AE673E48EE596E00E94FE412A
:1055C00040E050E06AE673E48BE596E00E94FE411D
:1055D00040E050E06AE773E488E596E00E94FE410F
:1055E0008AE00E9421340C945A1C83E50E94C9333E
:1055F000882311F40C945A1C0E9433337093590180
:10560000609358010C945A1C8DED90E00E940A356D
:1056100081110C945A1C83E50E94C933882311F42C
:105620000C945A1C0091E20310E00E943333000FE7
:10563000111FF801EA5AFE4F718360830C945A1CC3
:1056400080E50E949A33882311F40C945A1C0E941E
:105650003333F62EC62ED72E83E50E94C933882316
:1056600021F00E9433338B0102C00FEF1FEFC801FE
:105670000196039710F00C945A1CD7FE02C00C94AC
:105680005A1CEEE8F6E086EB96E02491F21611F44F
:105690000C945A1C31968E179F07B9F74AC480E5BF
:1056A0000E949A33882311F40C945A1C0E943333BD
:1056B0006B017C018B01672B19F0EDE5F3E181C0F3
:1056C00083E50E949A33811103C0EFEBF5E308C034
:1056D0000E94333386EF96E10E946F400C945A1C6F
:1056E00084917F01BFEFEB1AFB0A882321F00E940F
:1056F0002134F701F5CF60E070E08FEC96E00E9476
:105700001B428091F81628E532E06901C81AD108D9
:1057100087FDD394CC0CDD1CCC0CDD1C0D2C000CB7
:10572000EE08FF088091F71628E830E04901881A52
:10573000910887FD9394880C991C880C991C092C5E
:10574000000CAA08BB088091F6168F3FB9F090E0D4
:10575000FC01EE0FFF1F8E0F9F1FFC01EF52F94E51
:105760000181128153E0000F111F5A95E1F764E0A7
:10577000169507956A95E1F70E5F1F4F98012F5F09
:105780003F4FC901330FAA0BBB0B9C01AD01281978
:1057900039094A095B09A4EBB0E00E940CF7A701A4
:1057A0009601281939094A095B090E94EDF6B901E9
:1057B0008CEC96E00E941B428AE00E9421340C94FB
:1057C0005A1C84918F010F5F1F4F882321F00E9484
:1057D0002134F801F6CFB60185EC96E00E941B4219
:1057E000E6EBF6E084918F010F5F1F4F882311F4E1
:1057F0000C945A1C0E942134F801F4CF85E40E94D5
:10580000C933811110C080E50E949A33882391F03A
:105810000E9467336093D30D7093D40D8093D50DA0
:105820009093D60D07C00E944333882361F3EDE5C2
:10583000F3E172C089E40E949A33882381F00E94C8
:1058400067332CEA35EC47E25EE30E94DBF06093BD
:10585000CF0D7093D00D8093D10D9093D20D84E431
:105860000E949A33882381F00E9467332CEA35EC3A
:1058700047E25EE30E94B2F76093D70D7093D80DB4
:105880008093D90D9093DA0DEFEBF5E384918F01BE
:105890000F5F1F4F882321F00E942134F801F6CFBB
:1058A0004091D30D5091D40D6091D50D7091D60DCE
:1058B0008FED96E00E94FE412CEA35EC47E25EE374
:1058C0006091CF0D7091D00D8091D10D9091D20D3E
:1058D0000E94B2F7AB01BC018BED96E00E94FE4145
:1058E0002CEA35EC47E25EE36091D70D7091D80D5C
:1058F0008091D90D9091DA0D0E94DBF0AB01BC01D3
:1059000087ED96E00E94FE418AE00E9421340C94CB
:105910005A1C0E942134F80184918F010F5F1F4FA0
:105920008111F7CF0AE412E0F80181918F018823F9
:1059300009F4FEC80E942134F7CF83E50E949A3310
:10594000182F882371F00E9467330E9424F8709307
:105950000D0160930C0121E0672B09F020E02093FA
:105960005F0480E50E949A33882361F020910C0146
:1059700030910D01232B11F00E94573380935F0467
:105980000C945A1C11110C945A1CEFEBF5E3849102
:105990008F010F5F1F4F882321F00E942134F801EF
:1059A000F6CF80915F04882319F068E272E002C0AC
:1059B00065E372E088EF96E00E94344260910C014A
:1059C00070910D0187EE96E00E941B42E3EEF6E037
:1059D00084918F010F5F1F4F882311F40C945A1C80
:1059E0000E942134F801F4CF0E94B16C0C945A1C2F
:1059F0000E94108B0C945A1C81E00E9469310C9417
:105A00005A1C86E50E949A33882341F08091B81988
:105A10009091B919892B11F00E94FFDF83E50E9454
:105A20009A33182F882319F00E945733182F83E5D3
:105A30000E949A33882319F0812F0E9451558AE5DC
:105A40000E949A33882321F00E9467330E940955EF
:105A5000F090960D111103C0EFEBF5E319C0F110B2
:105A6000FBCF0DE513E1F8018491811103C00AE237
:105A700017E005C00F5F1F4F0E942134F4CFF801DB
:105A80008491882349F30F5F1F4F0E942134F7CF81
:105A900084918F010F5F1F4F882321F00E942134D2
:105AA000F801F6CFFF2019F069E372E002C06CE361
:105AB00072E08CE197E00E9434428AE00E94213437
:105AC000EFEBF5E384918F010F5F1F4F811103C04E
:105AD000EFE0F7E004C00E942134F801F3CF849195
